:020000040800F2
:10000000C00900202902000831020008330200085C
:10001000350200083702000839020008000000001D
:100020000000000000000000000000003B0200088B
:100030003D020008000000003F0200086D2D00088E
:10004000430200084302000843020008430200087C
:10005000430200084302000843020008430200086C
:100060004302000843020008430200085905000843
:100070006505000843020008430200084302000827
:10008000430200084302000843020008430200083C
:10009000430200084302000843020008D505000897
:1000A00043020008012E0008430200084302000832
:1000B0004302000843020008000000004302000859
:1000C0004302000800000000000000004302000896
:1000D0000000000043020008413500084302000808
:1000E000BD050008430200080000000000000000F9
:1000F0000000000000000000000000000000000000
:1001000000000000000000000000000000000000EF
:100110000000000000000000430200084302000845
:1001200000000000000000000000000000000000CF
:1001300000000000000000000000000000000000BF
:1001400043020008430200080000000043020008C8
:10015000430200084302000843020008430200086B
:1001600043020008430200080000000000000000F5
:10017000000000000000000000000000000000007F
:10018000000000004302000800F002F800F03CF814
:100190000AA090E8000C82448344AAF10107DA45E2
:1001A00001D100F031F8AFF2090EBAE80F0013F0F8
:1001B000010F18BFFB1A43F001031847943B0000DE
:1001C000B43B0000103A24BF78C878C1FAD852076F
:1001D00024BF30C830C144BF04680C6070470000C1
:1001E0000023002400250026103A28BF78C1FBD840
:1001F000520728BF30C148BF0B6070471FB503F0DE
:1002000085FD1FBD10B510BD00F0CFF81146FFF7FA
:10021000F5FF03F027FA00F0EDF803B4FFF7F2FF63
:1002200003BC00F0F5F80000094880470948004782
:10023000FEE7FEE7FEE7FEE7FEE7FEE7FEE7FEE796
:10024000FEE7FEE704480549054A064B70470000F3
:10025000F12D000889010008C0030020C00900201A
:10026000C0050020C005002053EA020C00F06980A0
:100270002DE9F04B4FF00006002B1FBFB3FA83F5BA
:1002800003FA05F424FA05F65E4012BF1643B2FAEB
:1002900082F502FA05F4C5F120051EBF22FA05FC1D
:1002A00044EA0C04203556EA044C4FEA144418BFC3
:1002B000641C4FF000084FF00009904271EB030CF2
:1002C00039D3002919BFB1FA81F701FA07F6B0FA5C
:1002D00080F700FA07F6C7F120071EBF20FA07FCD7
:1002E00046EA0C062037B6FBF4FCA7EB0507103FE7
:1002F00007F01F0BCBF120060CFA0BFB2CFA06F6CD
:1003000044BFB3460026202FA4BF5E464FF0000B2B
:100310005BEA060C08BF4FF0010B19EB0B09ABFBB6
:10032000027C48EB0608C01B06FB02CC0BFB03CC8F
:1003300071EB0C01C1E70B46024641464846BDE859
:10034000F08B13B54FF000004FF00001AFF30080C9
:10035000BDE81C4070474FF0000200B513469446BC
:100360009646203922BFA0E80C50A0E80C50B1F10D
:100370002001BFF4F7AF090728BFA0E80C5048BF21
:100380000CC05DF804EB890028BF40F8042B08BFBF
:10039000704748BF20F8022B11F0804F18BF00F8BB
:1003A000012B7047704770477047754600F02CF876
:1003B000AE4605006946534620F00700854618B052
:1003C00020B5FFF73FFFBDE820404FF000064FF09B
:1003D00000074FF000084FF0000B21F00701AC467A
:1003E000ACE8C009ACE8C009ACE8C009ACE8C00999
:1003F0008D46704710B50446AFF300802046BDE837
:100400001040FFF70ABF000000487047600300205B
:1004100001491820ABBEFEE72600020070470146E6
:10042000406A026C12F0500F03D0806B026B0846DA
:100430001047016C41F4007101640168C96811F44E
:10044000406F0CD1417E51B9016C21F4807101647F
:10045000016CC90403D4016C41F00101016400F096
:100460006DBB406A016C41F040010164416C41F098
:100470000401416400F064BB406A00F060BB00000E
:1004800070B504460068816801F0030101292AD192
:100490000168C90727D0816801F00D01012914D135
:1004A000816841F00201816021680320086001F049
:1004B00049F9054613E000BF01F044F9401B02284A
:1004C0000DD920688068C00709D0206C40F010006A
:1004D0002064606C40F001006064012070BD206801
:1004E0008068C007E8D1002070BD000070B50446E8
:1004F0000068816801F00301012902D10168C90780
:1005000025D18168134A114212D1816841F001015D
:10051000816001F017F9054614E000BF01F012F9FF
:10052000401B02280ED920680068C043C00709D0CC
:10053000206C40F010002064606C40F001006064AA
:10054000012070BD20680068C043C007E6D10020CC
:1005500070BD00003F000080014800F010BF0000A7
:10056000D8020020014800F00ABF00001C03002050
:10057000054A016811441422B1FBF2F189000164BB
:100580000249C16370470000F8FFFDBF0000024050
:1005900030B590F840500124AC40C56B6C600468E5
:1005A00063604368102B036803D099600068C260E1
:1005B00030BD9A600068C16030BD000010B54FF4D6
:1005C000005000F091FF02480188491C018010BDD5
:1005D000B000002010B5402000F086FF02480188DE
:1005E000491C018010BD0000B200002072B6FEE779
:1005F00000680129D0F8B40002D000F07F007047F5
:10060000000C704710B590F83C30012B09D0012345
:1006100080F83C3003689C6804F00304012C02D08D
:1006200008E0022010BD1C68E40703D09C6814F0A9
:100630000C0F0CD0016C41F020010164416C41F0C1
:1006400001014164002180F83C10084610BD0129D9
:1006500053F8B41F04D021F07F0111431960F1E772
:1006600021F4FE0141EA0241F8E700002DE9F041E2
:10067000044690F83C00884601280AD0012584F8F9
:100680003C502046FFF7FCFE06004FF0000703D069
:1006900037E00220BDE8F08125642068816821F000
:1006A00080418160B8F1010F04D12068816841F078
:1006B000804181602068816841F00041816001F0E3
:1006C00041F8054613E000BF01F03CF8401B0A2842
:1006D0000DD920688068002809DA206C20F002001B
:1006E00040F01000206484F83C700120D2E72068BC
:1006F00080680028E8DB206C20F0020040F0010058
:10070000206484F83C703046C4E7000070B502688D
:1007100000234FF0A04494B0A24200D1314C009489
:1007200090F83C40012C1FD0012480F83C40926896
:1007300052074CD4009A9268520748D42A4A0D684E
:1007400040F61F7445B3956890F8306025F4604515
:1007500045EA46354E68354395600568AE6806F053
:100760000306012E06D102E0022014B070BD2D68F0
:10077000ED0731D1009DAD6805F00305012D03D1D2
:10078000009D2D68ED0727D10D6889680D4391689C
:10079000A1430D4395601FE0916821F46041916091
:1007A00001688D6805F00305012D02D10968C907AC
:1007B00012D10099896801F00301012903D1009940
:1007C0000968C90708D19168A143916004E0016CF0
:1007D00041F0200101640123002180F83C101846FB
:1007E000C3E700000001005000030050F0B594B0D2
:1007F0000025009590F83C202E46012A19D00127AB
:1008000080F83C7003689A6852077CD44A681F24B9
:10081000052A11D2D3F830C002EB420252009440B4
:100820002CEA040C0C6894404CEA040CC3F830C069
:1008300035E0022014B0F0BD0A2A0FD2D3F834C03C
:10084000521F02EB4202520094402CEA040C0C6846
:1008500094404CEA040CC3F834C020E00F2A0FD2B5
:10086000D3F838C00A3A02EB4202520094402CEA14
:10087000040C0C6894404CEA040CC3F838C00EE039
:10088000D3F83CC00F3A02EB4202520094402CEAEB
:10089000040C0C6894404CEA040CC3F83CC0026899
:1008A000936813F00C0F4FF0070374D1D1F800E0F8
:1008B000BEF10A0F10D39469AEF10A0E0EEB4E0C86
:1008C00003FA0CFE24EA0E04D1F808E00EFA0CFE3E
:1008D00044EA0E0494610FE0D2F814C00EEB4E040B
:1008E00003FA04FE2CEA0E0CD1F808E00EFA04FE1E
:1008F0004CEA0E0CC2F814C002684C69D2F80CC065
:10090000CCF3C10C00E0E1E04FEA4C0C04FA0CF42B
:10091000D1F810E0DFF810C2BEF1010F42D0BEF1F5
:10092000020F4DD0BEF1030F58D0BEF1040F63D0BB
:10093000146E91F800C004F0F844B4EB8C6F03D14E
:10094000146E24F0004414660268546E91F800C0DE
:1009500004F0F844B4EB8C6F03D1546E24F00044DF
:1009600054660268946E91F800C004F0F844B4EB49
:100970008C6F03D1946E24F0004494660268D46EA8
:1009800091F800C004F0F844B4EB8C6F03D1D46E3E
:1009900024F00044D4660268946804F00304012C37
:1009A0003AD136E0D2F860E00EEA0C0E91F800C0C1
:1009B00044EA8C644EEA040E4EF000441466EAE702
:1009C000D2F864E00EEA0C0E91F800C044EA8C64A0
:1009D0004EEA040E4EF000445466DCE7D2F868E0BC
:1009E0000EEA0C0E91F800C044EA8C644EEA040E44
:1009F0004EF000449466CEE7D2F86CE00EEA0C0E9E
:100A000091F800C044EA8C644EEA040E4EF00044B3
:100A1000C0E71468E4075ED1CC68012C06D052F818
:100A2000B03F0C78A740BB43136020E052F8B04FB2
:100A300091F800C007FA0CF73C4314600A68046898
:100A40000A2A0AD3A769093A02EB420293409F435C
:100A50008B6893401F43A76109E06769521C02EB52
:100A6000420293409F438B6893401F43676109682C
:100A70002E4A102904D0112905D0122906D02AE0C7
:100A800093681B0204E09368DB0101E093685B025A
:100A9000002B20DB03684FF0A044A34202D1244F77
:100AA000009700E000949F6807F00307012F02D130
:100AB0001F68FF070AD1009F8FB1BF6807F00307C7
:100AC000012F0CD1009F3F68FF0708D0016C41F057
:100AD00020010164012580F83C602846AAE610291F
:100AE00008D011291AD01229F5D1916841F480015A
:100AF0009160F0E7A342EED1916841F4000191606A
:100B00000C490D4A0968B1FBF2F101EB8101490082
:100B100000E0491E00910029FBD1DCE7A342DAD1B5
:100B2000916841F08071E3E700F0FF83000300501B
:100B300000010050CC00002040420F007047704779
:100B400070470000F0B54FF0000595B004002F4647
:100B50002E46009505D0206CC00648D4206C18B1F4
:100B600033E0012015B0F0BD6664E664A66484F845
:100B70003C60204600F0D8F820688068C00024D48B
:100B80002046FFF77DFC0546206CC0061DD4E5B964
:100B9000206C20F4885040F00200206420688168B6
:100BA00021F0405181602068816841F0805181606E
:100BB000574858490068B0FBF1F000EB8000400056
:100BC00000E0401E00900028FBD120688168C90029
:100BD00002D5806880000AD5206C20F0020040F029
:100BE00010002064606C40F0010060640125206CFE
:100BF000C0067DD4002D7BD12068816849077ED452
:100C0000216C21F4807141F00201216442494FF0CE
:100C1000A042904200D1414A0092826802F0030251
:100C2000012A02D10068C00710D1009840B1806845
:100C300000F00300012803D100980068C00705D127
:100C40008868626820F4403010438860D4E902105C
:100C50000843616B012902D04FF4805200E000226A
:100C6000617E42EA4132104394F820203843012A41
:100C70000AD1A9B1216C21F0020141F020012164C7
:100C8000616C41F001016164A16A012902D0E26A4C
:100C90001143084321688A6812F00C0F08D013E052
:100CA000A18C1F4A02EB4141014341F48030EBE744
:100CB000CA6844F202039A43CA60217E94F8302045
:100CC000890341EA420108432168CA68154B1A406A
:100CD0000243CA60206901282068016B21F00F01DE
:100CE00002D1E269521E114301636664206C00E088
:100CF00005E020F0020040F00100206406E0206CD6
:100D000020F0020040F0100020640125284629E769
:100D1000CC00002040420F000003005000010050B2
:100D20000000FEFF07C0F0FF2DE9F04F87B0054639
:100D300014216846FFF70FFB374AD5F800C000249E
:100D40001068032780263549401C4FF090434FF42C
:100D500000794FF4006A4FF0200BBCF1A04F07D090
:100D6000DFF8BC80C4452AD1106001282AD031E0C8
:100D70001060012807D1486940F0805048614869F7
:100D800000F080500590486940F40030486148699F
:100D9000694600F4003005900E20CDE9000702946A
:100DA000184600F0ADFB204F1E48E7E802041E483D
:100DB000A7E8500E47F81C4926E0AF637D6207B0F4
:100DC000BDE8F08F486940F080504861486900F004
:100DD00080500590486940F4003048614869694690
:100DE00000F400300590C020CDE9000702941846B9
:100DF00000F086FB0B480D4F1430E7E802040B4867
:100E0000A7E8500E47F81C4900F00DFB0028D4D08D
:100E1000FFF7ECFBD1E70000BC000020001002400F
:100E20000001005008000240D80200201C030020EE
:100E30002DE9F047044600689046894680684007DF
:100E40006ED494F83C0001280CD001204FF0A0464D
:100E500084F83C00D6F808034FF00007C00604D021
:100E6000012507E00220BDE8F0872046FFF73EFBA2
:100E7000050002D084F83C7053E0206C40F601611C
:100E8000884340F480702064D6F80803C00602D07E
:100E90002068B04206D1206C20F4801020642068C5
:100EA000C06807E0216C41F4801121641E4988422A
:100EB00008D1F068800105D5206C20F4005040F482
:100EC00080502064206CC00404D5606C20F00600C3
:100ED000606400E0676484F83C70A16B134888622A
:100EE000A16B1348C862A16B1248086321681C20DB
:100EF00008602068416841F0100141602068C168C5
:100F000041F00101C160216843464A464031A06B6F
:100F100000F0B0FA2068816841F00401816000E0CF
:100F2000022528469FE70000000100501F0400082A
:100F3000790400086304000870B5040003D094F835
:100F4000200010B104E0012070BD204600F082F8BE
:100F50002068016841F00101016000F0F3FB0546E3
:100F6000052604E000F0EEFB401B0A2811D820689B
:100F70004068C007F6D02068016821F002010160D6
:100F800000F0E0FB05460BE000F0DCFB401B0A280C
:100F900006D9606A40F40030606284F82060D2E7CD
:100FA000206840688007EFD4207E0128206801680F
:100FB0003DD021F080010160607E01282068016839
:100FC00038D021F040010160A07E0128206801682E
:100FD00033D021F020010160E07E01282068016803
:100FE0002ED041F010010160207F012820680168A7
:100FF00029D021F008010160607F01282068016884
:1010000024D021F004010160D4E902010843D4E9AD
:101010000412114308436168491E08432168C861EE
:1010200000206062012084F82000002070BD41F0A3
:101030008001C0E741F04001C5E741F02001CAE767
:1010400021F01001CFE741F00801D4E741F004019D
:10105000D9E7000010B586B0044614216846FFF7B2
:101060007AF91349206888421FD11248C16941F0BA
:101070000071C161C16901F000710591416941F4DC
:10108000003141614069694600F4003005904FF439
:10109000C050009002200190002002900320039095
:1010A00009200490C00600F02BFA06B010BD000025
:1010B0000064004000100240F0B5044600201E23EA
:1010C000012601E05B1E05D303F01F0706FA07F5B2
:1010D0000D42F7D072B1082A0AD0102A05D0182A7A
:1010E00001D1072B06D30120F0BD082BFBD201E074
:1010F000102BF8D22368596121688B6823F01803FC
:1011000013438B60F0BD000010B5040010D0607F69
:1011100020B900202077204600F030F802206077C8
:10112000207938B1D4E902122046FFF7C5FF48B153
:10113000012010BD2168104848612068816821F0B5
:10114000180181606079A0B1206921680861206878
:101150008168626921F060011143816020688168C3
:10116000A26921F080011143816001206077002095
:1011700010BD4FF0FF30E8E7B71DC10408B50068A7
:101180000649884208D10648416941F04001416161
:10119000406900F04000009008BD000000300240AF
:1011A00000100240F0B54379134F0568012B1CD0A5
:1011B00001264671022303712C6840F6FE73BD427E
:1011C00000D1A2B193409C430B6889680B439340C4
:1011D00023432B6001680B68C0249440A3430B6039
:1011E0000671002141710846F0BD0220F0BD9C430C
:1011F000D1E90031EAE700000074004070B5040056
:1012000003D02079002510B105E0012070BD657183
:10121000204600F007F8022020712561012020718E
:10122000002070BD10B586B0044614216846FFF753
:1012300092F81149206888421BD11048C16941F0D9
:101240000051C161C16901F000510591416941F44A
:10125000003141614069694600F40030059030205A
:10126000009003200190002002904FF0904000F089
:1012700047F906B010BD00000074004000100240A5
:1012800018B5046800940068104421B1143000902F
:101290000360002018BD0830F9E730B54279012A13
:1012A00012D0012242710223037103681D6802FA01
:1012B00001F425431D60002901680B6806D0C3F3C3
:1012C00083430F2B0AD00DE0022030BDC3F383030C
:1012D0000F2B07D14B6843F0010302E04B6843F04A
:1012E00002034B60027100214171084630BD10B508
:1012F00090F821100022022905D00421816380F892
:101300002020012010BD01680B6823F00E030B6044
:1013100001680B6823F001030B6090F84030C46B48
:10132000012101FA03F3636080F8211080F8202086
:10133000002010BD10B590F821100024022903D020
:1013400004218163012418E001680A6822F00E027A
:101350000A6001680A6822F001020A6090F84020E1
:10136000C36B012101FA02F25A6080F821100021BA
:1013700080F82010416B01B18847204610BDF0B4C1
:10138000C16B0D6801680C68066C042202FA06F352
:101390002B420FD063070DD50B689B0603D40B6857
:1013A00023F004030B6090F840108A40C16B4A6040
:1013B000C16A1BE0022303FA06F72F424FF0000C2C
:1013C0004FF0010216D0A70714D50C68A40605D467
:1013D0000C6824F00A040C6080F8212090F840107A
:1013E0008B40C16B4B6080F820C0816A002918D007
:1013F000F0BC08470823B3402B4212D0230710D576
:101400000B6823F00E030B6090F84010C36B02FAD8
:1014100001F15960826380F8212080F820C0016BBF
:10142000E4E7F0BC704770B5040021D0022084F8D6
:1014300021002268116843F6F0708143D4E901036A
:101440001843D4E903352B43184363691843A36950
:101450001843E3691843084310602046FFF788F8F3
:101460000020A063012184F8211084F8200070BDC1
:10147000012070BD70B5044690F8200000250128B9
:101480000CD0012084F8200094F821600020012E67
:1014900006D084F820000225284670BD022070BDC9
:1014A000022684F82160A0632068066826F0010601
:1014B00006602046FFF76CF8E06A002820680168A3
:1014C00002D041F00E0106E041F00A0101602068FF
:1014D000016821F0040101602068016841F0010108
:1014E0000160D9E770470000044910B50A6802425C
:1014F00002D00860FFF7F6FF10BD000014040140A1
:101500002DE9F04FDFF80092002309F1040A0126CB
:1015100003250AF1040B85B00F270BF1040EEAE056
:1015200006FA03F422407CD091F804C00CF0030CBE
:10153000BCF1010F02D0BCF1020F26D1D0F808C0D7
:10154000CDF800C04FEA430C05FA0CF8CDF810C0F6
:10155000DDF800C02CEA080CCDF800C0D1F80C80F2
:10156000DDF810C008FA0CF8DDF800C048EA0C08F5
:10157000C0F80880D0F804C02CEA040C0C79C4F33D
:1015800000149C4044EA0C0444600C79E443A40732
:101590000DD0D0F80CC04FEA430805FA08F42CEA45
:1015A000040C8C6804FA08F444EA0C04C4600C7956
:1015B00004F00304022C19D1DC0800EB840402942B
:1015C000246A4FEA437C4FEADC6CCDF810C007FA7E
:1015D0000CFC24EA0C04D1F81080DDF810C008FAE5
:1015E0000CF848EA0408029CC4F8208004684FEA1A
:1015F000430805FA08FC24EA0C0491F804C00CF036
:10160000030C0CFA08FC4CEA040CC0F800C04C684F
:1016100014F4403F6ED03D4CD4F818C04CF0010C8F
:1016200000E067E0C4F818C0A46923F0030C04F0DC
:1016300001040094364C64440294A4684FEA837C0D
:101640004FEA1C7807FA08FC24EA0C04B0F1904F2A
:1016500006D0DFF8C0C0604505D14FF0010C12E0A4
:101660004FF0000C0FE0DFF8B0C0604502D14FF042
:10167000020C08E0DFF8A4C0604502D14FF0030C73
:1016800001E04FF0050C0CFA08FC4CEA040C029C3B
:10169000C4F808C0D9F80040CC46D1F8048094437F
:1016A0005FEAC83800D51443CCF80040DAF80040AF
:1016B000D446D1F8048094435FEA883800D51443B7
:1016C000CCF80040DBF80040DC46D1F804809443BD
:1016D0005FEAC82800D51443CCF80040DEF800408B
:1016E000F446D1F8048094435FEA882800D5144377
:1016F000CCF800405B1C0A6832FA03F47FF410AFA8
:1017000005B0BDE8F08F0000000401400010024069
:10171000000001400004004800080048000C004898
:101720000069084000D001207047426921EA0203A5
:101730000A4043EA0241816170470AB18161704702
:10174000816270470148806870470000C000002037
:10175000024881680278114481607047C00000200F
:10176000074810B5016841F010010160032000F046
:101770006DF8002000F006F800F024F8002010BDFD
:101780000020024070B50D4D04464FF47A71287860
:10179000B1FBF0F00A490968B1FBF0F000F01AFD66
:1017A00048B9102C07D200222146501E00F02EF816
:1017B00000206C6070BD012070BD0000C0000020E2
:1017C000CC000020094808B5816941F00101816120
:1017D000816901F001010091C16941F08051C1614D
:1017E000C06900F08050009008BD00000010024069
:1017F000002809DB00F01F02012191404009800010
:1018000000F1E020C0F8001170470000F0B40E4B6A
:101810001B680C46C3F30223C3F10705042D00D94E
:101820000425191D072901D2002300E0DB1E012633
:1018300006FA05F1491E214099409E40761E164049
:101840003143F0BC01F0D8BE0CED00E0064900F0D9
:10185000070208684FF6FF03184040EA0220034AD7
:1018600010430860704700000CED00E00000FA052E
:101870002DE9F84F0446006800265C4DC0036ED584
:10188000E869C00008D4E86940F08050E861E86980
:10189000012600F08050009055480168C90512D417
:1018A0000168804641F480710160FFF74BFF0746F5
:1018B00005E000BFFFF746FFC01B642835D8D8F805
:1018C0000000C005F6D5286A10F4407053D0A188F6
:1018D00001F4407181424ED0286A4FF4803191FA70
:1018E000A1F2B2FA82F29700424A4FF0010817447F
:1018F00020F44070C7F8008491FAA1F1B1FA81F1A7
:1019000002EB81010023C1F800342862C00732D005
:10191000FFF718FF074641F2883A4FF0020907E047
:10192000FFF710FFC11B514502D90320BDE8F88F16
:1019300099FAA9F1B1FA81F141F040014846B8EBBA
:10194000511F01D129680CE090FAA0F1B1FA81F1A0
:1019500041F04001B0EB511F02D1296A01E015E0CE
:10196000696A99FAA9F0B0FA80F000F01F0008FA4D
:1019700000F21142D4D0286A616820F44070084314
:1019800028621EB1E86920F08050E8612078C00725
:1019900005D0286BA16820F0030008432863207855
:1019A000800605D5286BE16820F010000843286305
:1019B0002078000605D5E86A216920F4F87008430C
:1019C000E8622088C00405D5286B616920F4807026
:1019D000084328632088400405D5286BA16920F4BA
:1019E0008050084328630020A0E700000010024058
:1019F00000700040000042422DE9F0470F4605000C
:101A000069D04A4E306800F00700B84209D2306809
:101A100020F0070038433060306800F00700B8421B
:101A200059D12878424C800705D56068A96820F014
:101A3000F000084360602878C0073DD06968012045
:101A400001290DD0022923D05FF0020393FAA3F2FB
:101A5000B2FA82F242F02002520904D0226803E076
:101A60004FF40033F2E7626A93FAA3F3B3FA83F315
:101A700003F01F03984002422DD0606820F003005D
:101A800008436060FFF75EFE804641F288390CE053
:101A90004FF00073DAE700BFFFF754FEA0EB080138
:101AA000494502D90320BDE8F0876068696800F005
:101AB0000C00B0EB810FEFD1306800F00700B842A6
:101AC0000BD9306820F0070038433060306800F0F0
:101AD0000700B84201D00120E5E72878400705D586
:101AE0006068E96820F4E0600843606028780007D7
:101AF00006D56068296920F4605040EAC100606042
:101B000000F04EF86168F02292FAA2F201F0F001C2
:101B1000B2FA82F2D140074A515CC84006490860D7
:101B200006480068FFF72EFE0020BCE700200240B8
:101B300000100240363D0008CC000020C400002008
:101B400008480949006849684FF4E06292FAA2F235
:101B500001F4E061B2FA82F2D140044A515CC8401B
:101B600070470000CC00002000100240463D0008F5
:101B700008480949006849684FF4605292FAA2F295
:101B800001F46051B2FA82F2D140044A515CC8407B
:101B900070470000CC00002000100240463D0008C5
:101BA000164A10B55168164801F00C03042B20D0DA
:101BB000082B1ED14FF4701494FAA4F401F470139E
:101BC000B4FA84F4E3400F4CD26AE45C0F2393FA36
:101BD000A3F302F00F02B3FA83F3DA40094B103398
:101BE000C9039A5C06D500231946FEF73DFBA0FB0E
:101BF000040110BD0448A4FB000110BD0010024008
:101C000000127A00163D000800093D002DE9F84F4A
:101C1000050071D02878FC4EC0074FF0010425D094
:101C200070686704C0F38100012807D07068C0F3B2
:101C3000810002281BD17068C00318D597FAA7F05D
:101C4000B0FA80F040F02000400901D0306800E098
:101C5000706A97FAA7F1B1FA81F101F01F0104FA55
:101C600001F1084265D068680028D2D061E0686858
:101C7000B0F5803F0BD010B1B0F5A02F17D0306871
:101C800020F480303060306820F4802002E030683A
:101C900040F480303060F06AA96820F00F000843FB
:101CA000F062686820B3FFF74DFD80460AE03068B7
:101CB00040F480203060EAE7FFF744FDA0EB080025
:101CC000642871D897FAA7F0B0FA80F040F02000AD
:101CD000400901D0306800E0706A97FAA7F1B1FAC4
:101CE00081F101F01F0104FA01F10842E4D020E083
:101CF000FFF728FD804607E0C2E000BFFFF722FDA6
:101D0000A0EB08006428DCD897FAA7F0B0FA80F0BE
:101D100040F02000400901D0306800E0706A97FA76
:101D2000A7F1B1FA81F101F01F0104FA01F10842B3
:101D3000E4D12878DFF8D48280074FF0000A4FF012
:101D4000020730D570684FF0F80B10F00C0F07D079
:101D50007068C0F38100022827D17068C00324D4C2
:101D600097FAA7F0B0FA80F040F02000400901D0C7
:101D7000306800E0706A97FAA7F1B1FA81F101F0DA
:101D80001F0104FA01F1084202D02869012877D125
:101D900030689BFAABF220F0F8016869B2FA82F27F
:101DA0009040014331605AE064E1286988B394FAB5
:101DB000A4F0B0FA80F048F82040FFF7C3FC814659
:101DC00006E000BFFFF7BEFCA0EB090002289AD88E
:101DD00097FAA7F0B0FA80F040F02000400901D057
:101DE000306800E0706A97FAA7F1B1FA81F101F06A
:101DF0001F0104FA01F10842E4D030689BFAABF20B
:101E00006969B2FA82F220F0F8009140084330602C
:101E100025E0FFE794FAA4F0B0FA80F048F820A09B
:101E2000FFF790FC814605E0FFF78CFCA0EB090072
:101E30000228CCD897FAA7F0B0FA80F040F0200042
:101E4000400901D0306800E0706A97FAA7F1B1FA52
:101E500081F101F01F0104FA01F10842E4D1287870
:101E600000076CD5A869A8B394FAA4F0B0FA80F082
:101E700008EB8000C0F88044FFF764FC814607E06F
:101E8000A4E100BFFFF75EFCA0EB090002289ED88A
:101E900097FAA7F0B0FA80F040F06000B4EB501F62
:101EA00001D130680BE097FAA7F0B0FA80F040F06B
:101EB0006000B7EB501F01D1306A00E0706A97FAFA
:101EC000A7F1B1FA81F101F01F0104FA01F2104209
:101ED000D8D034E0FFE794FAA4F1B1FA81F108EB2D
:101EE0008101C1F880A4FFF72DFC814606E000BF08
:101EF000FFF728FCA0EB090002289AD897FAA7F070
:101F0000B0FA80F040F06000B4EB501F01D13068AF
:101F10000BE097FAA7F0B0FA80F040F06000B7EB62
:101F2000501F01D1306A00E0706A97FAA7F1B1FA48
:101F300081F101F01F0104FA01F21042D8D1287892
:101F4000400768D5F0694FF00009C00009D4F06976
:101F500040F08050F061F0694FF0010900F08050CE
:101F600000902B480168C90512D4016841F48071C2
:101F70000160FFF7E7FB834606E000BFFFF7E2FBE7
:101F8000A0EB0B00642875D821480068C005F5D582
:101F9000E86801280AD008B1052811D0306A20F07D
:101FA00001003062306A20F0040002E0306A40F044
:101FB00001003062E86868B3FFF7C4FB83460DE0B8
:101FC000306A40F004003062F0E700BFFFF7BAFB70
:101FD000A0EB0B0141F2883081424BD897FAA7F071
:101FE000B0FA80F040F04000B4EB501F01D13068EF
:101FF00013E097FAA7F0B0FA80F040F04000B7EB9A
:10200000501F09D1306A08E000100240000042422F
:10201000007000400CE040E0706A97FAA7F1B1FA56
:1020200081F101F01F0104FA01F21042CED02DE03F
:10203000FFF788FB834607E0FFF784FBA0EB0B016B
:1020400041F28830814215D897FAA7F0B0FA80F0B3
:1020500040F04000B4EB501F01D130680CE097FA1B
:10206000A7F0B0FA80F040F04000B7EB501F02D16B
:10207000306A01E083E0706A97FAA7F1B1FA81F162
:1020800001F01F0104FA01F21042D5D1B9F1000F9D
:1020900003D0F06920F08050F061E86980B3716886
:1020A000C1F38101022977D04FF080714F000228DF
:1020B000504609D091FAA1F1B1FA81F148F8210016
:1020C000FFF740FB05465DE0894691FAA1F1B1FAC0
:1020D00081F1C24648F82100FFF734FB804605E055
:1020E000FFF730FBA0EB0800022848D897FAA7F0CA
:1020F000B0FA80F040F02000400902D0306801E0E2
:1021000066E0706A97FAA7F1B1FA81F101F01F0158
:1021100004FA01F10842E3D1D5E9081008437168D7
:1021200021F474110843706099FAA9F0B0FA80F0B4
:102130004AF82040FFF706FB054604E0FFF702FBE4
:10214000401B02281BD897FAA7F0B0FA80F040F0A5
:102150002000400901D0306800E0706A97FAA7F1CA
:10216000B1FA81F101F01F0104FA01F10842E5D052
:102170002EE000BFFFF7E6FA401B022802D9032039
:10218000BDE8F88F97FAA7F0B0FA80F040F0200091
:10219000400902D0306801E00BE0706A97FAA7F1BD
:1021A000B1FA81F101F01F0104FA01F10842E1D115
:1021B0000EE00128E4D070682A6A00F48031914270
:1021C00004D1696A00F47010884201D00120D7E779
:1021D0000020D5E710B5401EB0F1807F01D301206B
:1021E00010BD4FF0E02460610F21601701F004FA88
:1021F0000020A06107202061002010BD70477047BB
:1022000070470000F0B590F83C20012A2CD0012442
:1022100080F83C40022280F83D2003685A689D689F
:10222000124EB34203D122F470074A683A4322F0B7
:1022300070070A683A435A600268B24208D0B2F1A5
:10224000804F05D00A4B9A4202D00A4B9A4204D1E1
:10225000896825F080031943916080F83D40002192
:1022600080F83C100846F0BD0220F0BD002C014073
:10227000000400400040014010B5040003D094F871
:102280003D0010B107E0012010BD002084F83C00A3
:10229000204600F023F8022084F83D00211D20682C
:1022A00000F020FE012084F8480084F83E0084F805
:1022B0003F0084F8400084F8410084F8420084F82C
:1022C000430084F8440084F8450084F8460084F80C
:1022D000470084F83D00002010BD000008B50068EC
:1022E0000B49884212D10B48816941F40061816138
:1022F0008069002200F40060009011461920FFF769
:1023000085FABDE808401920FFF772BA08BD000041
:10231000002C01400010024090F83D10012901D02E
:1023200001207047022180F83D100168CA6842F020
:102330000102CA6000680D49884208D0B0F1804FA0
:1023400005D00B49884202D00A49884207D18168EA
:10235000094A1140062906D0B1F5803F03D0016833
:1023600041F001010160002070470000002C014095
:1023700000040040004001400700010070B5044621
:1023800090F83C000025012817D0012684F83C6015
:10239000022084F83D00226890682F4B184020F4FA
:1023A0007F4090600868502838D00DDC20284FD03E
:1023B00005DC90B3102811D14AE0022070BD30280E
:1023C00046D040280AD13BE060282FD070280DD09D
:1023D000B0F5805F03D0B0F5005F12D0012584F81E
:1023E0003D60002084F83C00284670BDCB68D1E9F0
:1023F0000121206800F0BAFD2068816841F0770172
:1024000009E0CB68D1E90121206800F0AFFD206828
:10241000816841F480418160E1E719E0CA68496858
:10242000206800F0B5FD5021206806E0CA684968C0
:10243000206800F0BEFD6021206800F0A1FDCEE71D
:10244000CA684968206800F0A3FD40212068F4E7CD
:10245000226801461046F0E788FFFEFF704770B51E
:102460000446006801694FF00005C943890715D487
:10247000C168C943890711D4E91E01610120207791
:10248000206880698007204602D0FFF7E7FF04E05C
:1024900000F0A7F8204600F0A5F82577206801692C
:1024A000C943490717D4C168C943490713D46FF01A
:1024B00004010161022020772068806910F4407FC8
:1024C000204602D0FFF7CAFF04E000F08AF8204659
:1024D00000F088F8257720680169C943090716D4F8
:1024E000C168C943090712D46FF0080101610420D3
:1024F00020772068C0698007204602D0FFF7AEFF32
:1025000004E000F06EF8204600F06CF825772068B3
:102510000169C943C90617D4C168C943C90613D4A0
:102520006FF010010161082020772068C06910F465
:10253000407F204602D0FFF791FF04E000F051F801
:10254000204600F04FF8257720680169C943C90784
:1025500008D1C168C943C90704D1891E0161204659
:1025600000F041F820680169C943090609D4C1682F
:10257000C943090605D46FF0800101612046FFF7C9
:102580003EFE20680169C943C90509D4C168C94331
:10259000090605D46FF4807101612046FFF72EFE15
:1025A00020680169C943490609D4C168C94349067D
:1025B00005D46FF040010161204600F015F8206855
:1025C0000169C94389060BD4C168C943890607D488
:1025D0006FF0200101612046BDE87040FFF710BE9A
:1025E00070BD7047704770477047704770477047BD
:1025F0002DE9F04102680446D0691168936840F6FD
:102600000F0528424FF0000505D186067ED58E06BF
:102610007CD5616E1AE1994F03F001060F403743F4
:1026200074D0C70709D0CF0507D501271762D4F8A2
:10263000802042F00102C4F8802082070AD5DA0720
:1026400008D0276802223A62D4F8802042F00402BF
:10265000C4F8802042070AD5DA0708D0236804228C
:102660001A62D4F8802042F00202C4F880200207E7
:102670000CD501F02002324308D0236808221A62E8
:10268000D4F8802042F00802C4F8802002050BD55F
:102690004A0109D523684FF400621A62D4F88020F9
:1026A00042F02002C4F88020D4F88020002A35D0DF
:1026B000800605D5880603D5616E09B12046884796
:1026C000D4F8800021688968490602D410F0280FE8
:1026D00026D0204600F01BFD2068806840061AD5F1
:1026E0002068083050E8001F21F0400140E8001247
:1026F000002AF5D1206F70B161494163206FFEF768
:1027000019FE00280AD0206F416B01E00EE0204640
:10271000BDE8F04108472046FFF769FFBDE8F081BA
:102720002046FFF764FFC4F88050F7E7276E2026A5
:10273000012F7AD1C70678D5CF0676D51020106242
:1027400020688068400640D5216F08684068000412
:10275000000CE3D0B4F858208242DFD9A4F85A0024
:10276000886920282AD0216851E8000F20F4807061
:1027700041E80002002AF6D12068083050E8001F26
:1027800021F0010140E80012002AF5D1206808304C
:1027900050E8001F21F0400140E80012002AF5D166
:1027A000E6672566216851E8000F20F0100041E837
:1027B0000002002AF6D1206FFEF799FDB4F8580008
:1027C000B4F85A10401A81B22AE0B4F85800B4F8AC
:1027D0005A10401A81B2B4F85A0000289ED000293D
:1027E0009CD0226852E8000F20F4907042E8000369
:1027F000002BF6D12068083050E8002F22F00102AB
:1028000040E80023002BF5D1E6672566656622685F
:1028100052E8000F20F0100042E80003002BF6D130
:102820002046FFF7E2FE79E7FFE7C70209D55B0222
:1028300007D54FF4801010622046BDE8F041FFF745
:10284000D5BE020606D50A0604D5A16E00297FF47E
:102850005EAF63E74006E6D54806E4D5204601684A
:1028600051E8002F22F0400241E80023002BF6D16E
:102870008667856600F0F5F850E700002001000447
:10288000FB30000810B5040002D0A06F10B107E0C3
:10289000012010BD002084F87400204600F026F8C6
:1028A0002420A0672068016821F001010160204612
:1028B00000F0F0FC0128ECD0606A10B1204600F076
:1028C0008AFB2068416821F490414160206881685A
:1028D00021F02A0181602068016841F00101016056
:1028E0002046BDE8104000F0DABB000010B586B00D
:1028F000044614216846FDF72EFD164920688842DB
:1029000026D11548C16941F40031C161C16901F4A2
:1029100000310591416941F4802141614069694676
:1029200000F48020059018200090022001900020E3
:10293000029003200390072004900848FEF7E0FD72
:10294000002211462620FEF761FF2620FEF750FFE9
:1029500006B010BD004400400010024000040048D2
:1029600030B4C36F202B1DD1C9B1C2B190F87430FF
:10297000012B17D0012380F874300023036603680D
:102980005B681B0208D5046854E8003F43F080638D
:1029900044E80035002DF6D130BC00F01DBD01200B
:1029A00030BC70470220FBE7704700002DE9F84378
:1029B0000446806F1F4616460D4620284FD1CDB1E4
:1029C000C6B194F87400012849D0012084F874003D
:1029D0004FF00008C4F880802120A067FEF7B2FE07
:1029E000A4F850608146A4F85260A068B0F5805FFA
:1029F00003D004E00120BDE8F883206928B12E4609
:102A00005FF0000584F8748010E00026FAE780216A
:102A1000204600F031FDB8B9C6B116F8010B2168A7
:102A20000885B4F85200401EA4F85200B4F85200D1
:102A30004B464FF0000200970028E8D14FF04001CC
:102A4000204600F019FD30B10320D4E735F8020B21
:102A5000C0F30800E3E72020A0670020CBE70220B6
:102A6000C9E770472DE9F0418AB000240694079425
:102A7000182168460894FDF76EFC25484FF0A041E8
:102A80000125C0E9001405618460457680F8204086
:102A9000C0E90A540326C661C46080F830504FF084
:102AA0000408C0F8148004764463FEF74BF808B1BC
:102AB00072B6FEE706A916480694FDF727FE08B190
:102AC00072B6FEE706200227CDE902040594CDE99F
:102AD0000075049469460E48FDF788FE08B172B689
:102AE000FEE769460A48CDE90067FDF77FFE08B1B9
:102AF00072B6FEE7CDE9008669460548FDF776FE29
:102B0000002801D072B6FEE70AB0BDE8F0810000EF
:102B1000D0000020F0B587B018216846FDF71BFCF7
:102B20001B481A490024C0E900140125056184608E
:102B3000457680F82040C0E90A540226C661C46088
:102B400080F830400427476104764463FDF7FAFFBC
:102B500008B172B6FEE70320CDE900050620CDE9F5
:102B60000204049469460A480594FDF73FFE08B143
:102B700072B6FEE7CDE9007669460548FDF736FEF8
:102B8000002801D072B6FEE707B0F0BD000100508A
:102B9000200100200D4810B50B4901601021416053
:102BA00000214FF480328160C0E903124161017657
:102BB00041768176C17601774177FEF7BDF900282D
:102BC00001D072B6FEE710BD006400407001002025
:102BD0002DE9F04186B014216846FDF7BCFB36486C
:102BE000416941F400214161416901F400210591ED
:102BF000416941F400314161416901F400310591BD
:102C0000416941F48021416140692C4F00F48020EA
:102C10004FF483440590002221463846FEF78DFD8F
:102C2000DFF89C804CF62756002231464046FEF7DE
:102C300084FD4FF4015000904FF488100190022061
:102C4000029069463846FEF75BFC0125CDE9004558
:102C500000240294694638460394FEF751FC00961E
:102C6000CDE90154694640460394FEF749FC6803E8
:102C7000CDE90004694640460294FEF741FC4FF45A
:102C80004070CDE9000469464FF090400294FEF791
:102C900037FC002211461720FEF7B8FD1720FEF77B
:102CA000A7FD002211462820FEF7B0FD2820FEF7E0
:102CB0009FFD06B0BDE8F08100100240000800480A
:102CC0000004004810B588B0002419480594069403
:102CD00003940494009401941449029401604FF405
:102CE000FA41C0E901140911C0E903148021C0E9C7
:102CF0000541FFF7C1FA08B172B6FEE74FF4805004
:102D0000039003A90A48FFF739FB08B172B6FEE742
:102D10002020CDE90004694605480294FFF772FAC5
:102D2000002801D072B6FEE708B010BD002C0140AB
:102D3000D00100200C4810B50A4901604FF49641BB
:102D40004160002181600C22C160C0E904128161F0
:102D5000C16101624162FFF795FD002801D072B6A2
:102D6000FEE710BD004400401C020020FEF7F0BC4E
:102D700030B597B028216846FDF7EDFA14210AA86E
:102D8000FDF7E9FA1C210FA8FDF7E5FA022501205D
:102D9000049000951020059000244FF46010CDE9B8
:102DA000084007956846FEF731FF08B172B6FEE7A6
:102DB0000F20CDE90A054FF48060CDE90C400221D7
:102DC0000AA80E94FEF718FE08B172B6FEE74FF49B
:102DD00084500F904FF48070CDE913040FA8FEF7D4
:102DE00047FD002801D072B6FEE717B030BD0000E5
:102DF0000248016841F470010160704788ED00E00D
:102E000070B52A48FFF72BFB28480024006844626D
:102E100027490878401C08704FF480712548FEF758
:102E200084FC254825490122038833B10C800480A5
:102E300023480088012802D005E00A80F7E72149ED
:102E40000888401C0880204D20482988322901D25A
:102E5000028000E004801E4B1E491E88322E01D2E3
:102E60000A8000E00C801C4A16882E801B4D2E889C
:102E70001E8014802C8002881948012A01D012B1CA
:102E800004E000220BE00B88012B07D009880A43DD
:102E90000AD1BDE870400421FEF747BC0122BDE81D
:102EA00070400421FEF749BC70BD0000D001002035
:102EB000AF00002000080048B800002020000020DB
:102EC0001A00002018000020B40000201C00002080
:102ED000B60000201E000020B0000020B20000203C
:102EE00000040048F0B502681B4B1C4F4FF0804CAB
:102EF000984203D0604501D0B84203D122F070045B
:102F00004A682243164C174D174E984209D0604527
:102F100007D0B84205D0A04203D0A84201D0B042A9
:102F200003D122F44077CA683A434F6922F0800205
:102F30003A4302608A68C2620A688262984205D097
:102F4000A04203D0A84201D0B04201D10969016377
:102F500001214161F0BD0000002C0140000400404F
:102F600000400140004401400048014010B5846821
:102F700042EA032224F47F440A432243826010BDC4
:102F8000826822F070020A4342F0070181607047B4
:102F900010B5036A046A24F001040462846924F011
:102FA000F00444EA021423F00A020A438461026234
:102FB00010BD10B5036A23F0100303628369046A2D
:102FC00023F4704343EA023224F0A00343EA0111E0
:102FD0008261016210BD90F82410C90706D0016813
:102FE0004A68836A22F400321A434A6090F8241037
:102FF000890706D501684A68C36A22F480321A43F9
:103000004A6090F82410490706D501684A68036BA6
:1030100022F480221A434A6090F82410090706D54A
:1030200001684A68436B22F400421A434A6090F8F0
:103030002410C90606D501688A68836B22F4805281
:103040001A438A6090F82410890606D501688A68B8
:10305000C36B22F400521A438A6090F82410490688
:1030600011D501684A68036C22F480121A434A6041
:10307000016CB1F5801F06D101684A68436C22F4E7
:10308000C0021A434A6090F82410090606D5016868
:103090004A68806C22F4002202434A607047F8B507
:1030A00000260446C0F88060FEF74CFB0546206809
:1030B00000686FF07E47000708D52B4600224FF4CA
:1030C00000112046009700F0D7F960B92068006829
:1030D00040070AD52B4600224FF480012046009776
:1030E00000F0CAF908B10320F8BD2020A067E0670E
:1030F000266684F874600020F8BD10B5406A00218F
:10310000A0F85A10A0F85210FFF771FA10BD01682C
:1031100051E8002F22F4907241E80023002BF6D1F1
:103120000168083151E8002F22F0010241E8002334
:10313000002BF5D1016E012908D1026852E8001F69
:1031400021F0100142E80013002BF6D12021C167C5
:10315000002101664166704710B5B0F85C20C36F6E
:103160000168222B04D0886940F00800886110BDF6
:10317000898C436D11401980416D891C4165B0F8FF
:103180005A10491EA0F85A10B0F85A100029EED172
:10319000026852E8001F21F4907142E80013002BEE
:1031A000F6D10168083151E8002F22F0010241E810
:1031B0000023002BF5D12021C16700214166026E5A
:1031C000012A02D0FFF7F0FB10BD0166026852E849
:1031D000001F21F0100142E80013002BF6D1016816
:1031E000CA69D243D20601D410220A62B0F858103C
:1031F000FFF7FBF910BD10B5B0F85C20C36F016894
:10320000222B04D0886940F00800886110BD898CA9
:103210001140426D1170416D491C4165B0F85A1062
:10322000491EA0F85A10B0F85A100029EED10268D1
:1032300052E8001F21F4907142E80013002BF6D1F0
:103240000168083151E8002F22F0010241E8002313
:10325000002BF5D12021C16700214166026E012AB1
:1032600002D0FFF7A1FB10BD0166026852E8001F03
:1032700021F0100142E80013002BF6D10168CA6961
:10328000D243D20601D410220A62B0F85810FFF7D8
:10329000ACF910BD70B5044680682169E269084345
:1032A000616900251143226808431168444B1940A5
:1032B0000143116020684168E26821F440511143E4
:1032C0004160A169206A084321688A6822F430625B
:1032D00002438A603B492068884210D13A48006B1B
:1032E00010F0030011D0012805D0022805D00328D2
:1032F0000DD102210CE004210AE0082108E0334945
:10330000884202D03249884201D1002100E01021D8
:10331000E3694FF400422F484FF6EF76934227D1EE
:10332000092941D2DFE801F005080E400B4040407A
:103330002200FEF705FC04E0FEF71AFC01E0FEF7B0
:103340002FFC90B34100606801EB5001B1FBF0F03D
:1033500080B2A0F11001B14226D84FF6F0710140C1
:10336000C0F3420001432068C16023E01046E9E752
:10337000092919D2DFE801F005080E180B181818F2
:103380001A00FEF7DDFB04E0FEF7F2FB01E0FEF7BA
:1033900007FC50B1616800EB5100B0FBF1F080B266
:1033A000A0F11001B14203D9012503E01046F1E775
:1033B0002168C86000206066A066284670BD0000D5
:1033C000F369FFEF00380140001002400044004064
:1033D0000048004000127A0030B54165A0F858203E
:1033E000A0F85A200021416682684FF48055FF23DF
:1033F000AA4204D102696ABB40F2FF1230E07F2486
:1034000032B3B2F1805F28D0A0F85C10C0F8801011
:103410002222C2670268083252E8003F43F00103EB
:1034200042E80034002CF5D18268AA4201D1026939
:10343000E2B10F4A426680F87410026852E8001F39
:1034400041F4907142E80013002BF6D1002030BD0A
:10345000026942B9A0F85C30D8E702691AB13F228C
:10346000A0F85C20D2E7A0F85C40CFE7014AE1E792
:10347000F7310008593100082DE9F0479A46174600
:103480000E4604464FF000094FF02008089D4AE020
:10349000681C48D0FEF756F9A0EB0A00A8422AD8CB
:1034A0004DB32068016849073DD5C069C043000598
:1034B00039D421684FF400600862206850E8001F8A
:1034C00021F4D07140E80012002AF6D120680830BB
:1034D00050E8001F21F0010140E80012002AF5D158
:1034E000C4F87880C4F87C80C4F8808084F8749034
:1034F0000320BDE8F087216851E8000F20F4D07068
:1035000041E80002002AF6D12068083050E8001F88
:1035100021F0010140E80012002AF5D1C4F87880BA
:10352000C4F87C80E2E72068C06936EA000004D075
:103530000020B842ACD00020DBE70120F9E7000012
:103540002DE9F0412448FFF753F80122234922488E
:10355000FFF706FA2249234F0888401C08804FF4E1
:1035600000613846FEF7E1F81F4C53261F4D2178C5
:103570001A48442913D04E2908D0532904D1007881
:10358000052801D14E202070BDE8F0810078712817
:1035900003D144202070002008E02670F4E7017871
:1035A000042905D0124A28781154401C2870EBE7F2
:1035B000012220213846FEF7C0F8322310220D499F
:1035C0000548FFF7F3F9002220213846FEF7B5F849
:1035D00001206870E1E700001C020020AE0000201E
:1035E000B80000200004004800000020BA000020BD
:1035F000A00200209E0000200907090E002804DB1D
:1036000000F1E02080F80014704700F00F0000F196
:10361000E02080F8141D70474FF47A72B0FBF2F38B
:1036200010B50A22B3FBF2F402FB143330330B70F3
:103630006423B0FBF3F3B3FBF2F402FB1433303337
:103640004B70B0FBF2F3B3FBF2F402FB14333033F4
:103650008B70B0FBF2F302FB13003030C8703020E7
:10366000087110BD2DED048B84B0FEF779F8FFF7DB
:103670007FFBFFF7ADFAFE48416941F0010141616E
:103680004069002200F00100009011460B20FEF777
:10369000BDF80B20FEF7ACF8002211460C20FEF717
:1036A000B5F80C20FEF7A4F8FFF7DCF94FF000089E
:1036B000F149CDF80080CDF80480EE48CDF80880BF
:1036C00008600846FDF79AFD08B172B6FEE70224CD
:1036D000CDE9008400226946E748FDF763FD08B1A3
:1036E00072B6FEE710226946E3480294FDF75AFDE0
:1036F00008B172B6FEE7FFF70DFADF48DF4924385C
:103700004FF0010B016080F8048080F80580C0F85C
:103710001480C0F820B0C0F81880FDF7F5FC08B19F
:1037200072B6FEE7FFF706FBFFF734FAFFF7CAFAB7
:103730000021D148FDF7B1FD1021CF48FDF7ADFDC7
:10374000CD4960310868026842F0200202600868D2
:10375000016841F040010160C7480021EC38FCF7E6
:1037600085FFC5480021EC38FCF742FFC44C0246F7
:103770000021A064C048EC38FCF744FFBE49032296
:10378000F431A1F5F070FDF753FBBB4800219C38E4
:10379000FCF76CFFB84800219C38FCF729FF024673
:1037A000E064B54800219C38FCF72CFFB5490322A2
:1037B000A1F5D270FDF73CFB00222021B248FDF7B5
:1037C000BCFFAD481430FEF7A7FD01229103AF48BE
:1037D000FDF7B3FFB2EE029AB2EE048ADFEDAC8AD7
:1037E0004FF0320AA74824380178C278303901EB0B
:1037F0004103C3EBC11102EBC1014378642213FB07
:1038000002F2837803EB830302EB43021144A1F538
:10381000A051D0398AB262810179C379303901EB84
:103820004105C5EBC11103EBC1014379642513FBCD
:1038300005F3857905EB850503EB45031944A1F5EF
:10384000A051D0390904090CA181037AC57AA3F1EA
:10385000300303EB4306C6EBC31305EBC305437A02
:103860004FF0640613FB06F6837A03EB830306EB43
:1038700043032B44A3F58053A3F59A63E381007BB4
:10388000A0F13000E070C4E90D1204D040F6BE2073
:10389000814200D3606322B140F6FF70824200D3C0
:1038A000A0634FF4807529464FF09040FDF738FF34
:1038B00048B1C4F83C8084F80080C4F83480002209
:1038C000C4F838800AE0E06B49F64041401CE063F0
:1038D000884207D384F800B00122E16302216A48DC
:1038E000FDF72BFFA08B00B30020E178012900D069
:1038F00000210840618AD1B100210840218AC1B16C
:1039000000210840218BB1B10021084273D05E4EE6
:10391000012229463046FDF710FF206C4FF47A75DE
:10392000A8420AD2401C20640FE00120DDE70121FB
:10393000E3E70121E5E70121E7E784F801B001228F
:10394000D10330462564FDF7F8FEA4F81680A4F8EC
:103950001480608BD0B100202178012900D0002193
:1039600008406178012900D000210840D4E90D21E8
:10397000114300D0012108423ED0606CA84207D21A
:10398000401C6064A07801280AD09AE00120E3E797
:103990000122910330466564FDF7CFFE84F802B042
:1039A000012211463046FDF7C8FE01229102304641
:1039B000FDF7C3FE3248A26B8030C168914205D248
:1039C00040F6FF73994201D2491CC160914202D373
:1039D00009B1491EC1608168626B914205D240F60F
:1039E000FF73994201D2491C8160914269D3E9B3C6
:1039F000491E816065E01CE0E16B49F64040814270
:103A000005D300224FF400413046FDF796FE002218
:103A10004FF480413046FDF790FE002201213046F0
:103A2000FDF78BFE00224FF480613046FDF785FEE6
:103A300042E0154E00224FF400413046FDF77DFE76
:103A400000224FF480413046FDF777FE002201212D
:103A50003046FDF772FE00224FF480613046FDF7DC
:103A60006CFEA4F816B0C4F8448013E029E000000E
:103A70000010024000740040BC01002000300240F1
:103A800004000020C4020020000400480008004890
:103A90000000000084F80280C4F8408084F80180AF
:103AA000A08A3C2808D9002229463046FDF745FE69
:103AB000A4F81680A4F814809048C0F80C80C0F8D0
:103AC00008808E4E002211468D48B368FDF7D8FB62
:103AD000002210218A48F368FDF7D2FB884FC4F812
:103AE0005080F43784F8048045463A6828462179A6
:103AF0001044491CC9B221713229F8D3B0FBFAF144
:103B0000C4E91401606E08446066E1790A2929D18C
:103B1000B0FBF1F000EE100AD6ED000AB8EE400A54
:103B200000EE890AC0EE080ABCEEE00AB8EE400AD0
:103B300086ED000AD4ED0B0A20EE200A86ED010A7C
:103B40006566D4ED0C0A30EE601AB5EEC01AF1EEDF
:103B500010FA04DD30EE200A86ED010A01E0C6ED20
:103B6000018AE571E0796549401CE07196ED010A32
:103B70001531B146BCEEC00A10EE100AFFF74CFD3D
:103B80005E481530461D0178B1714178F171817838
:103B90003172C0787072E56565717968284662791E
:103BA0000844521CD2B26271322AF8D35746B0FB95
:103BB000F7F1C4E91701A06D0844A065217A0A292C
:103BC0002DD1B0FBF1F000EE100AD4ED1E0AB8EED4
:103BD000400A00EE890AC0EE080ABCEEE00AB8EE20
:103BE000400A84ED1E0AD4ED090A20EE200ABCEE3C
:103BF000C00AB8EE400A84ED1F0AA565D4ED0A0A92
:103C000030EE601AB5EEC01AF1EE10FA04DD30EEB7
:103C1000200A84ED1F0A01E0C4ED1F8A2572207A74
:103C20003649401C207294ED1F0A1031BCEEC00AC8
:103C300010EE100AFFF7F0FC304810300178B17038
:103C40004178F17081783171C078707120783030AE
:103C5000B072A07C3030F072207C30303073207E27
:103C600030307073A07E3030B07399ED010AD4ED1E
:103C70001F0A284620EE200ADFED220A80EE201AD5
:103C8000BCEEC10A84ED080A10EE101AA566A571F3
:103C9000A2790844521CD2B2A271322AF8D3A0668B
:103CA000B0FBF7F0E066216F01442167607A0A28D3
:103CB0000AD1B1FBF0F1626F02EBC2021144B1FB19
:103CC000F0F0C4E91C506572607A4FF40071401C3A
:103CD00060724FF09040FDF723FD10B1A4F810B0D2
:103CE00000E025824FF400510748FDF719FD10B19F
:103CF000A4F812B076E5658274E500008400002027
:103D0000BC01002000007A44000400484FF04070DD
:103D1000E1EE100A704702030405060708090A0BC2
:103D20000C0D0E0F10100102030405060708090A06
:103D30000B0C0D0E0F10000000000000000001022F
:103D40000304060708090000000001020304000044
:103D5000703D000800000020D0000000C4010008F1
:103D6000403E0008D0000020F0080000E0010008FC
:103D700053000000000000000000000000000000F0
:103D80000000000000000000000000000000000033
:103D900000000000000000000000803F0000000064
:103DA0000000803F00000000000000000000000054
:103DB0000000000000000000000000000000000003
:103DC00000000000000000000000000000000000F3
:103DD00000000000000000000000000000000000E3
:103DE00000000000000000000000000000000000D3
:103DF00000000000000000000000000000000000C3
:103E0000000000000000000000000000000006713B
:103E10003030303030303030303030303030000002
:103E20000000000000000000000000000000000092
:103E300001000000100000000000000000127A00E5
:040000050800018965
:00000001FF
